:020000040000FA
:060000000A128A11FC2F18
:100DC000831603138801831203138801E72E3F3033
:100DD0008312031388000330F2008A30F10055308B
:100DE000F000F00BF12EF10BF12EF20BF12EF82E9C
:100DF00006308312031388000330F2008A30F100BA
:100E00005530F000F00B022FF10B022FF20B022FE6
:100E1000092F5B308312031388000330F2008A30FD
:100E2000F1005530F000F00B132FF10B132FF20BE4
:100E3000132F1A2F4F308312031388000330F20050
:100E40008A30F1005530F000F00B242FF10B242FE5
:100E5000F20B242F2B2F66308312031388000330EC
:100E6000F2008A30F1005530F000F00B352FF10B15
:100E7000352FF20B352F3C2F6D3083120313880072
:100E80000330F2008A30F1005530F000F00B462FAD
:100E9000F10B462FF20B462F4D2F7D30831203139B
:100EA00088000330F2008A30F1005530F000F00B7A
:100EB000572FF10B572FF20B572F5E2F073083124E
:100EC000031388000330F2008A30F1005530F0003F
:100ED000F00B682FF10B682FF20B682F6F2F7F300C
:100EE0008312031388000330F2008A30F10055307A
:100EF000F000F00B792FF10B792FF20B792F802F67
:100F00006F308312031388000330F2008A30F1003F
:100F10005530F000F00B8A2FF10B8A2FF20B8A2F3D
:100F2000912F77308312031388000330F2008A3048
:100F3000F1005530F000F00B9B2FF10B9B2FF20BC3
:100F40009B2FA22F7C308312031388000330F20002
:100F50008A30F1005530F000F00BAC2FF10BAC2FC4
:100F6000F20BAC2FB32F39308312031388000330F8
:100F7000F2008A30F1005530F000F00BBD2FF10B7C
:100F8000BD2FF20BBD2FC42F5E30831203138800D8
:100F90000330F2008A30F1005530F000F00BCE2F14
:100FA000F10BCE2FF20BCE2FD52F793083120313F6
:100FB00088000330F2008A30F1005530F000F00B69
:100FC000DF2FF10BDF2FF20BDF2FE62F71308312B3
:100FD000031388000330F2008A30F1005530F0002E
:100FE000F00BF02FF10BF02FF20BF02FF72FE72E75
:100FF000E72E0A128A11002883010A128A11E02EB4
:04400E00D4E0FFFFFC
:00000001FF
